{
  "contractName": "Example",
  "abi": [
    {
      "constant": true,
      "inputs": [],
      "name": "price",
      "outputs": [
        {
          "name": "",
          "type": "address"
        }
      ],
      "payable": false,
      "stateMutability": "view",
      "type": "function"
    },
    {
      "inputs": [
        {
          "name": "marketPriceContract",
          "type": "address"
        }
      ],
      "payable": false,
      "stateMutability": "nonpayable",
      "type": "constructor"
    },
    {
      "anonymous": false,
      "inputs": [
        {
          "indexed": false,
          "name": "sender",
          "type": "address"
        },
        {
          "indexed": false,
          "name": "amount",
          "type": "uint256"
        }
      ],
      "name": "NewPayment",
      "type": "event"
    },
    {
      "constant": true,
      "inputs": [],
      "name": "FiveETHUSD",
      "outputs": [
        {
          "name": "",
          "type": "uint256"
        }
      ],
      "payable": false,
      "stateMutability": "view",
      "type": "function"
    },
    {
      "constant": true,
      "inputs": [],
      "name": "PriceAddress",
      "outputs": [
        {
          "name": "",
          "type": "address"
        }
      ],
      "payable": false,
      "stateMutability": "view",
      "type": "function"
    }
  ],
  "bytecode": "0x6060604052341561000f57600080fd5b6040516020806102db83398101604052808051906020019091905050806000806101000a81548173ffffffffffffffffffffffffffffffffffffffff021916908373ffffffffffffffffffffffffffffffffffffffff160217905550506102608061007b6000396000f300606060405260043610610057576000357c0100000000000000000000000000000000000000000000000000000000900463ffffffff168063a035b1fe1461005c578063ec54e035146100b1578063f776d5a4146100da575b600080fd5b341561006757600080fd5b61006f61012f565b604051808273ffffffffffffffffffffffffffffffffffffffff1673ffffffffffffffffffffffffffffffffffffffff16815260200191505060405180910390f35b34156100bc57600080fd5b6100c4610154565b6040518082815260200191505060405180910390f35b34156100e557600080fd5b6100ed61020b565b604051808273ffffffffffffffffffffffffffffffffffffffff1673ffffffffffffffffffffffffffffffffffffffff16815260200191505060405180910390f35b6000809054906101000a900473ffffffffffffffffffffffffffffffffffffffff1681565b6000806000809054906101000a900473ffffffffffffffffffffffffffffffffffffffff1673ffffffffffffffffffffffffffffffffffffffff16630c560c6460006040518263ffffffff167c010000000000000000000000000000000000000000000000000000000002815260040180828152602001915050602060405180830381600087803b15156101e757600080fd5b5af115156101f457600080fd5b5050506040518051905090506101f4810291505090565b60008060009054906101000a900473ffffffffffffffffffffffffffffffffffffffff169050905600a165627a7a723058208407a957c587dd98d81571b7f8f541d417ebf33bdd30982bd7bda80ec84c58610029",
  "source": "pragma solidity ^0.4.15;\n\n/*\n\n    Crypto Price Example Contract with FiatContract.com\n\n    This contract will force the sender to send $5.00 USD\n    worth of ETH.\n\n*/\n\ncontract FiatContract {\n  function ETH(uint _id) constant returns (uint256);\n  function USD(uint _id) constant returns (uint256);\n  function EUR(uint _id) constant returns (uint256);\n  function GBP(uint _id) constant returns (uint256);\n  function updatedAt(uint _id) constant returns (uint);\n}\n\ncontract Example {\n\n    FiatContract public price;\n    event NewPayment(address sender, uint256 amount);\n\n    function Example(address marketPriceContract) {\n        price = FiatContract(marketPriceContract);\n    }\n\n    // returns $5.00 worth of STORJ in ETH wei.\n    function FiveETHUSD() constant returns (uint256) {\n        // returns $0.01 of STORJ in ETH wei\n        uint256 ethCent = price.USD(0);\n        // $0.01 * 500 = $5.00\n        return ethCent * 500;\n    }\n\n    function PriceAddress() constant returns (address) {\n        return price;\n    }\n\n}\n",
  "sourcePath": "/Users/hunterlong/github/fiatcontract/contracts/Example.sol",
  "compiler": {
    "name": "solc",
    "version": "0.4.21+commit.dfe3193c.Emscripten.clang"
  },
  "schemaVersion": "2.0.0",
  "updatedAt": "2018-04-16T05:34:58.194Z"
}